:1000000000000420750300005D0300005F03000092
:1000100061030000630300006503000000000000AE
:100020000000000000000000000000006703000066
:1000300069030000000000006B0300006D03000076
:10004000492D00006F030000691C00006F030000D1
:100050006F0300006F0300006F0300000522000023
:100060006F0300006F0300006F0300006F030000C8
:100070006F0300006F0300006F0300006F030000B8
:100080006F030000151A00006F0300006F030000EB
:100090006F0300006F0300006F0300006F03000098
:1000A0006F0300006F0300006F0300006F03000088
:1000B0006F0300006F03000000000000000000005C
:1000C0006F0300006F0300006F0300006F03000068
:1000D000B12D00006F0300006F0300006F030000EC
:1000E0006F0300006F0300006F03000000000000BA
:1000F000000000006F030000000000006F0300001C
:1001000000000000000000000000000000000000EF
:1001100000000000000000000000000000000000DF
:1001200000000000000000000000000000000000CF
:1001300000000000000000000000000000000000BF
:1001400000000000000000000000000000000000AF
:10015000000000000000000000000000000000009F
:10016000000000000000000000000000000000008F
:10017000000000000000000000000000000000007F
:10018000000000000000000000000000000000006F
:10019000000000000000000000000000000000005F
:1001A000000000000000000000000000000000004F
:1001B000000000000000000000000000000000003F
:1001C000000000000000000000000000000000002F
:1001D000000000000000000000000000000000001F
:1001E000000000000000000000000000000000000F
:1001F00000000000000000000000000000000000FF
:10020000354936480A1A02D0072291438D463449AF
:1002100034480A1A06D00722914381F30988022242
:1002200082F3148830483149314A00F044F83148AB
:100230003149324A00F03FF831483249324A00F041
:100240003AF832483249334A00F035F832483349F7
:10025000334A00F030F833483349344A00F02BF881
:1002600033483449344A00F026F8344834490022EF
:1002700000F02CF833483449002200F027F83348C6
:100280003349091A082902DB002202604160314A21
:1002900090471F481F49884205D00268043003B4C4
:1002A000904703BCF7E700208646EC46002000217B
:1002B000294A9047FEE7884207D0521A05D00378B2
:1002C00001300B700131013AF9D17047884202D0F8
:1002D00002700130FAE770470000042000E00320BC
:1002E0000000042000000420AC3A000000000020C0
:1002F00054000020D0030000D0030000843500002B
:10030000AC3A000000000020000000201036000081
:1003100010360000103600001036000010360000C5
:10032000103600001036000010360000AA3A000017
:10033000003B000054000020540000205400002026
:100340005C0A00205C0A00205C0A00205C0A002095
:100350005C2A00209D030000B12F0000FEE7FEE7AD
:10036000FEE7FEE7FEE7FEE7FEE7FEE7FEE7FEE765
:1003700000F002B8FFF7FCBF0F484FF007018843B9
:1003800085460E4880470E48016841F470010160BF
:10039000BFF34F8FBFF36F8FFFF732BF09480A4992
:1003A0000A4A884207D0521A05D0037801300B70F0
:1003B0000131013AF9D170470000042005320000F4
:1003C00088ED00E010360000000000200000002052
:1003D0007047000007B5044B0093044A402300F027
:1003E00032F803B05DF804FBF10300005500002073
:1003F0002DE9F84388461446B2B10F4B0F4E032542
:10040000002743F00109224608EB0701002002F013
:10041000A5FE0744241A48B933782BB14FF47A402B
:10042000C847013D02D13570BDE8F8830123337020
:10043000002CE8D1F8E700BF10360000540000207F
:10044000704702F0BFBEF0B595B01D46164608468F
:100450000C4600F0D7FF1A9B0D93CDE908650025E7
:100460002B46082205A920460A958DF82C500C959C
:1004700000F0E5FF079B0293069B03939DF8143061
:100480008DF8115003F00302012A1DD1BDF814208C
:10049000059DC3F3C203C2F383168DF81030B2007A
:1004A00008230EA9204600F0CAFFC5F3952508AB26
:1004B0000093324602AB0EA9284600F09FFB20466F
:1004C00000F0A4FF15B0F0BD022AF8D1BDF8165017
:1004D000C3F3C203C5F389158DF810300827082D22
:1004E0002E4628BF08263B4632460EA9204600F07D
:1004F000A6FFAD1B08AB02AA31460EA8374400F098
:10050000E1FB002DEBD1DAE7014B01221A707047B5
:10051000D60000207047000070B5124D06460FCD82
:1005200088B06C460FC495E80F00002E84E80F00D9
:100530004FF0FF334FF00602CDE90023CDE902333F
:10054000094A0A484FF0EB7308BF00226946069338
:1005500001F04CFB08B100F011FC054B1E7008B017
:1005600070BD00BF24360000090500000000002017
:100570009500002007B5044B0093044A4023FFF781
:1005800062FF03B05DF804FB9105000096000020B7
:1005900038B50D4B0D4D002018700D4804782D5DB9
:1005A000D2B21C4665B1043002F050FB08B100F035
:1005B000E5FB084B1A7812B12378002BFBD038BD2D
:1005C0000C3002F0E7F8F1E7D60000200807002021
:1005D000000000209500002008B50848084A03786C
:1005E000D35C3BB1043002F0ADFABDE80840002016
:1005F000FFF792BF0C3002F071F8F6E70000002020
:10060000080700200120FFF787BF000038B50A4D1A
:10061000FFF717FF0421284600F05AFA074B012480
:100620005C71FFF7EFFF042105F1100000F050FAB4
:10063000034B5C7138BD00BFDC35000014000020A6
:100640001C000020037813F0040216D003F003030B
:10065000012B03D0022B09D0012070470A680088C3
:100660000232C0F3831002440A60F5E70B68428847
:10067000023303EB92130B60EEE710467047000065
:100680002DE9F04F044685B0861C00200F46154624
:1006900000F0CCFB3F4A51683960936803F58073E2
:1006A0005B1A924602F21C4702F5836902F2144873
:1006B000B34219D30020002D68D004F00F039B0132
:1006C00043F0050363F30F00DAF80430DAB20332C3
:1006D0001E444AF822000020CAF8046000F0A8FB7B
:1006E000012005B0BDE8F08F0121384600F0C5FBC0
:1006F000484600F0DAFB404600F0D7FBDAF8080085
:100700000090C0B203300AEB80006946FFF79AFF01
:10071000009B30BBDAB20AEB8202D16801919A1CCD
:100720000133DBB20AEB83030092D3F80CB001F083
:100730000303012B22D0022B15D08346404600F044
:10074000B7FB10B1009BCAF808305946384600F094
:1007500094FBDAF80830DAF8042003F580739B1A6A
:10076000A6E7D8B2CEE7BDF80630C3F3891303334A
:100770004FEA1B4B02EB93030093DFE7BDF8043015
:10078000C3F383134FEA1B4B1344F5E7A40544F06E
:10079000060099E7A8010020064B074810B5002283
:1007A0001A7000F0E8FD044610B9044800F051FE4C
:1007B000204610BDA8010020FC350000883600004E
:1007C00030B50A4C71B10A4A0A49121BD2080023FB
:1007D0009A4201D1002030BD31F82350854202D029
:1007E0000133F5E7034654F83300F4E7843500009D
:1007F000DC35000000000020094B013903EBC0008C
:10080000032909D8DFE801F00A0204060420704732
:100810000079704740797047002070470220704788
:1008200084350000034BD3E90130C31A58425841C4
:10083000704700BFA80100202DE9FF41FFF7F2FF3C
:100840000546002840F0E280714CC4F81804BFF35C
:100850004F8FA3680093DBB2033304EB8300694638
:10086000FFF7F0FE009B18B1D4F81824002A55D0E9
:10087000DAB2991C013304EB8202DBB204EB83038E
:10088000D268DB68029302F00303022B019200910D
:100890004FD1BDF806305F48C3F38917502F3E464D
:1008A00028BF502666F38F1306F10801ADF8063015
:1008B00000F079FD0546002800F0938000F0A2FDCD
:1008C000002301A90822284600F0AFFD0099CB4380
:1008D000DBB20133C9B20331B6EB830F4FEA8308B1
:1008E00004EB810122D908234246A6EB08062846DC
:1008F00000F09BFDF6B2484908F10803324628464D
:1009000000F093FD009B033703EB97070097D4F8A3
:100910001834002B41D1D4F8106451E062689A4237
:1009200099D8A260284604B0BDE8F0810823324679
:10093000E5E7012B55D1BDF804303648C3F38311E8
:10094000062928BF062161F3891302318900ADF819
:10095000043000F028FD0546002842D000F052FD8A
:100960000023082201A9284600F05FFD0026BDF8FB
:100970000420C2F38312B300964203F10803C6D2E7
:1009800000994A1CC9B20331009204EB8101042290
:10099000284600F04AFD0136E9E7284600F036FD1A
:1009A000FFF740FF80F00100C5B2BBE7F3685B7959
:1009B00023B1336829461B6830469847F3681E68A0
:1009C000002EF3D1284600F021FD304600F02EFA2B
:1009D000D4F818340BB9009BA360002000F028FA6B
:1009E000DEE7D4F8104454B90C4B0D480D49C01A39
:1009F000C008000440F0020000F05CF8D0E7236873
:100A000020469B689847E3681C68ECE7002589E767
:100A1000A8010020FC350000B4010020843500004E
:100A2000B4350000713600002DE9F34704460E4648
:100A3000924601A9012218469946FFF721FE1B4F55
:100A400010B3019D4FF00008AA1CC84508EB020135
:100A500023D11748002100F0EDF980F310000004C5
:100A600040EA1440E4006B1C04F03804DBB2EDB241
:100A700044F0010407EB8303033544EA881444EA95
:100A80008624D86047F825403B781BB1FFF7D4FE99
:100A90000028FBD102B0BDE8F087C9B207EB8101A5
:100AA0005AF82830CB6008F10108CEE7A8010020F1
:100AB000C405002000231A46FFF7B6BF07B5CDE9ED
:100AC000002302236A46FFF7AFFF03B05DF804FB83
:100AD00030B50F49D1F8102403460020144634B92C
:100AE000DC6820714AB9C1F81034226030BDE46876
:100AF0002579854206D02468F1E7D2681168216023
:100B00001360F3E701300A28E8D14FF0FF30EDE73A
:100B1000A8010020084A38B50123D2F81044137008
:100B20001D4604B938BDE3685D71236820465B68E3
:100B30009847E3681C68F4E7A801002007B503465E
:100B40000846197A052911D05B7A2BB1094A0A495E
:100B5000019000F007FA01980849019000F002FAAC
:100B6000019803B05DF804EB00F0F1B9002AF8D069
:100B7000F2E700BF9436000099360000B936000055
:100B800030B5C38885B004460D4633B1144A00928F
:100B90001449154A284600F0E5F9217A05291DD0A7
:100BA000637A4BB1A088FFF727FE104B104953F82A
:100BB0002020284600F0D6F9227A0E4BA08853F860
:100BC000222003920021FFF7FBFD039A0A49034606
:100BD000284605B0BDE8304000F0C4B905B030BDCE
:100BE00094360000A43600009C3600002037000038
:100BF0009936000044370000BC3600002DE9F04370
:100C000085B01F460C9D002395F80C902B7306466B
:100C10000C46904629463846FFF7B2FFB8F1060F5A
:100C200009D8DFE808F00412181F283340003146C5
:100C3000284600F097F9002229463846FFF77EFF44
:100C400085F80C9005B0BDE8F0832268314628464F
:100C500000F088F9EFE7D4E900233146284600F098
:100C600081F9E8E7A36800933146D4E900232846D8
:100C700000F078F9DFE7E3680193A3680093314659
:100C8000D4E90023284600F06DF9D4E723690293E4
:100C9000E3680193A36800933146D4E90023284612
:100CA00000F060F9C7E76369039323690293E3687F
:100CB0000193A36800933146D4E90023284600F04D
:100CC00051F9B8E708292DE9F74F80460E46174637
:100CD0001C463CD8002593F80C901D73194610460D
:100CE000FFF74EFFDFF888A0DFF888B0AE4231D9B9
:100CF00018F805205946204600F034F90135082D32
:100D0000F4D11949194DDFF870A0204600F02AF9F6
:100D10004FF0000B5E4522D918F80B207E2A05D82B
:100D20001046019202F0AEFB019A00B92E22514604
:100D3000204600F017F90BF1010BBBF1080FE9D1C8
:100D4000012221463846FFF7F9FE84F80C9003B0E3
:100D5000BDE8F08F5146204600F004F9CEE7294661
:100D6000204600F0FFF8E6E7D0360000CE3600005F
:100D7000CC360000C6360000D23600001FB5002178
:100D8000039001AA44F20100CDE9011100F004F83A
:100D900005B05DF804FB000010B572B6FFF7BAFEAF
:100DA000FFF74AFD0028FBD1104B114C1149E41A02
:100DB000E408240444F00100FFF77CFE0E4B1B689E
:100DC000DB0700D500BE0D4944F00200FFF772FEBC
:100DD000BFF34F8F0A490B4BCA6802F4E06213431A
:100DE000CB60BFF34F8F00BFFDE700BF843500002D
:100DF000B435000058370000F0ED00E06437000023
:100E000000ED00E00400FA0572B6024A13680133EF
:100E10001360704760060020034A1368013B1360AB
:100E200003B962B6704700BF60060020FFF7ECBF51
:100E3000FFF7F2BF10B5034653E8000F0A4643E838
:100E4000002494F0000FF7D110BD10B5034653E80D
:100E5000002F42EA010043E8000494F0000FF6D1AD
:100E600010BD10B5034653E8000F00EA010243E845
:100E7000002494F0000FF6D110BD10B5034653E8DE
:100E8000002F02EB010043E8000494F0000FF6D1BC
:100E900010BD10B5034653E8002FA2EB010043E854
:100EA000000494F0000FF6D110BD0121FFF7CDBF73
:100EB0000021FFF7D6BF10B590B1D0E9012301683A
:100EC0009B1ADBB20A60013BDBB2FF2B026802D146
:100ED0000020107110BD11684C1C14600B70F2E7FB
:100EE0000E20F7E738B504460020FFF79FFF226881
:100EF00063681168994213D9481E106011F8015CAB
:100F0000E368218A01FB0535A36811791B1ADBB25E
:100F1000994200D213710020FFF78AFF284638BD9E
:100F20000025F8E738B5054600200C46FFF77EFFA0
:100F30002A681368591C1160E968641A298AB4FB8D
:100F4000F1F41C70BDE838400020FFF771BF8268E3
:100F500010B504462AB14369016800699847002327
:100F6000A36010BD0EB403B5039921B104AB01AA6F
:100F7000019300F06FF802B05DF804EB03B0704726
:100F8000826830B40468551C8560A154D0E90132F0
:100F90009A4202D330BCFFF7DABF30BC7047000082
:100FA0002DE9F84F9846DDE90A43154682460F467B
:100FB0000A464FF00109AA420FD2C14538BFC146C7
:100FC00013F0010B01D16CB900240126B8F1010F17
:100FD0001BD908F1FF386E43F8E709F10109B2FBAC
:100FE000F5F2E8E79B070ED5B8F1000F0CBF3026ED
:100FF0002026A145E9D2013C31465046FFF7C0FF0B
:10100000002CF6D1E0E72026F3E7B7FBF6F39D428C
:10101000E1D9DFF83C80B7FBF6F3504618F803102F
:1010200006FB1377FFF7ACFF3346AB42B6FBF5F692
:10103000F1D2BBF1000F02D00CB1A14501D3BDE844
:10104000F88F20215046013CFFF79AFFF4E700BFDC
:10105000713700002DE9F74F0546174688460029ED
:1010600000F0428118F8011B49B92B7B002B00F0DE
:101070003B81284603B0BDE8F04FFFF768BF252944
:1010800040F0B780002698F800302D2B424608F13A
:10109000010823D0302B24D02B2B25D000242A2B41
:1010A00002F1010123D13B681A1D1B683A601C4400
:1010B0000A4613782E2B26D101324FF0000A104633
:1010C00010F8011BA1F1300CBCF1090F1DD80A2347
:1010D00003FB0A13A3F1300A0246F0E746F00106CB
:1010E000D1E746F00206CEE746F00406CBE711F85A
:1010F000013CA3F130000928DBD80A2202FB0434AA
:10110000303C0A46CBE74FF0000A12F8011B01F011
:10111000FB0068289046F8D0782909D86F290CD8A8
:10112000632962D022D8252963D0582900F088800D
:1011300098F80030002B95D197E770390829F7D837
:1011400001A353F821F000BFC312000031110000C9
:101150003111000051120000311100002F12000067
:10116000311100003111000041120000642901D04A
:101170006929DDD13A68D2F80090111D89EAE97237
:101180003960A2EBE9724FF0010B092A35DCD34537
:1011900038BFD3462CB1B9F1000F01DB720700D57F
:1011A000013CB30702D5BAF1000F03D0F00701D418
:1011B0004CBB0024B9F1000F2DDAC9F100092D2133
:1011C0002846FFF7DDFE06F00302022A04D1BAF139
:1011D000000F01D11CBB0024CDE9004653460A2272
:1011E00049462846FFF7DCFEA2E73B681A1D19783E
:1011F0003A602846FFF7C4FE9AE70A230BF1010B79
:10120000B2FBF3F2C1E7A345D4D220212846013C2A
:10121000FFF7B6FECCE77107D5D52B21D0E7A34564
:10122000DAD230212846013CFFF7AAFED2E739681E
:10123000CDE900460A1D3A6053460A220968D0E704
:1012400039680A1D3A60CDE9004653461022F5E799
:101250003B681A1D3A6016F00106D3F8009028D1B9
:10126000B9F1000F03D0484602F05CF90646B442DB
:1012700000D904BB09F1FF3919F8011F00293FF417
:1012800057AF2846FFF77CFEF6E728460136FFF702
:1012900077FE19F806100029F7D1A642BFF448AF2F
:1012A000002C3FF445AF20212846013CFFF768FEA3
:1012B000F3E70026EDE720212846013CFFF760FE1A
:1012C000D5E73B681A1D3A60302128461C68FFF7B5
:1012D00057FE78212846FFF753FE00220823CDE968
:1012E0000032214610227CE703B0BDE8F08F00BF3A
:1012F0002DE9F84FB0F806A04579D2F800B09DF876
:1013000028900AFB05F5043D88460BEB0301A94232
:1013100003F1040488BFA5EB030BB4FBFAF6074600
:101320000AFB1644C2F800B04EB9AAEB04055D45AD
:1013300028BF5D46BBF1000F04D1BDE8F88F3F68C0
:10134000013EF1E7043408EB06003C442A46B9F1BB
:10135000000F0DD02146ABEB050B02F098F8DA45F3
:101360002E443F6855464FF0000428BF5D46E1E734
:1013700001462046EFE7FFF79EBDF8B546790146E6
:10138000721E0546002393422D6803D30024A64213
:1013900002D8F8BD0133F6E70F682846FFF7C2FD13
:1013A00001343946F3E72DE9F843068ACD1C074698
:1013B000FFF798FD043E35440446B5FBF6F5F0B161
:1013C0004FF48073EDB28380C680013D0760814693
:1013D0004FF00008A84512D23846FFF783FD0646B5
:1013E00048B163790133637108F10108C9F800005D
:1013F00007608146EEE72046FFF7BFFF34462046F0
:10140000BDE8F88301210430FFF737BD10B5012195
:1014100004460430FFF73DFD10F0FF0F04D12046D5
:10142000BDE81040FFF7A9BF10BD1FB50392002211
:10143000009203AAFFF75CFF05B05DF804FB1FB53F
:1014400003920122009203AAFFF752FF05B05DF854
:1014500004FB836800225A60C3E904229A60DA60C0
:101460001A607047D0E90223D1E90201994208BF0E
:1014700090422CBF012000207047000008B50B48A7
:1014800000F0B1FA0A4B0B49D3E900231218D1E955
:10149000000143F100038B4208BF824203D212F1E4
:1014A000807243F100031046194608BD2400002055
:1014B00068060020E006002037B505460C460A48BD
:1014C00001A900F0C4FA60B10570446001A90648A2
:1014D00000F0E7FA18B1054800F08AFA002003B0DE
:1014E00030BD0420FBE700BFCC0600202400002014
:1014F00038B5184B1B78044613B90025284638BD6B
:101500000028FAD0037F03F0FF05002BF5D0FFF78A
:10151000B5FFD4E90223994208BF904214D323694E
:1015200003B92377D4E90530984721690029E4D02D
:10153000237F03F0FF05002BDFD0D4E902235218EC
:1015400043F10003C4E902230348214600F0F4FA02
:10155000D4E700BF700600209437000013B50023C5
:10156000ADF8043006238DF806300F490F480823E4
:10157000582200F059FA044698B90D4A0D4801A9BD
:1015800000F022F9044660B90A48012100F00EFA81
:101590000123094A0748194600F070F9074B012258
:1015A0001A70204602B010BD74060020CC06002040
:1015B0001516000024000020FFFF7F0070060020A9
:1015C0003AB103685A614A1E5142514119610020E3
:1015D00070470720704738B5037F04460D4683B92E
:1015E0008261FFF74BFF2369401941F10001C4E913
:1015F000020103B1256121460020BDE83840FFF714
:101600005BBF002038BD0000014800F0ECB900BF0E
:10161000240000202DE9F04F85B0804600F0CEF97F
:1016200040B15A4AD2E9003113F1807341F100010F
:10163000C2E900310021404600F0CFF938B1544EE4
:10164000336823B13068FFF753FF00233360012173
:10165000404600F0C2F920B1FFF710FF4D4BC3E93F
:1016600000014D484A4F4D4EDFF8389103A900F074
:1016700028FA002845D1DFF82491454EDFF828A14B
:10168000484600F06FFA3368002875D07BB13368A4
:10169000D0E90201D3E90223994208BF90422DD23A
:1016A00033681B7F1BB13168484600F045FA484655
:1016B00000F052FAD0E902B307460193FFF7DEFECD
:1016C000019BBBEB000463EB0105012C75F10003EA
:1016D00045DBB4F5D40F40D3FFF796FF304A024400
:1016E0004FF416030021504600F0E8F800283ED1E0
:1016F000336813B9404600F0B9F8376005B0BDE86B
:10170000F08F0378012B1DD0022B09D14FF0000A76
:10171000304600F021FA002834D080F81CA0F7E70A
:101720003BB941680B7F23B901230B77304600F0AA
:1017300003FA03A9184800F0EFF903A9164800F0CE
:10174000C0F996E741683B68994202D100233B60AB
:10175000EFE7304600F009FAEBE7BA68C0E700218E
:10176000504600F030F93846FFF7C2FE01E00D2880
:10177000F9D00023336083E7002BBFD1404600F04F
:1017800079F8BBE7012389F80030D2E7680600202A
:10179000E8060020E0060020CC0600209437000078
:1017A000FFFF69007006002024000020435882B02B
:1017B0003BB10023435043580193019B012002B0E9
:1017C00070471846FBE70000F8B5204B4479204DE0
:1017D00043F824201F4A204B05EBC4049B1A2279AE
:1017E000DB081B0432B143F002001C49FFF762F929
:1017F0000820F8BD02680C88C2F8084590F904601A
:101800008A7804795201002ED2B219DB14498F195B
:1018100087F800230122760904F01F0402FA04F479
:1018200041F82640427905EBC201012445F8320017
:101830000C7143F003000B49FFF73CF90020D8E797
:10184000094904F00F040A55ECE700BFF406002034
:10185000EC06002084350000BC350000A0370000F5
:1018600000E100E0C237000014ED00E0036801224F
:101870001A607047036801225A60704773B501F11E
:101880005005AD000068ADB24FF480348C400026A6
:10189000C0F80843C0F84843465101F5A8714559BE
:1018A000019522F07F42019D40F82120C0F8444379
:1018B0000BB1C0F8044302B070BD00002DE9F74F32
:1018C0000D4622F07F4402684FF4803705F1500640
:1018D0008F408046B60002EB8500C2F84873B6B26E
:1018E000C2F80873D2F8041599464FF0000BD0F8EF
:1018F0004035C0F8401542F806B05B1A9259009284
:1019000023F07F43012B009A4FEA850A0CD1264B26
:101910004FF4806043F001039847D8F8003043F853
:1019200006B09B590193019BD8F80010D1F80465CB
:10193000C1F84473A31B23F07F43012B1CD11A4B26
:1019400005F5A875013443F0010341F825404FF433
:1019500080609847D8F80030D3F804359E4209D10A
:10196000D8F800300020C3F84473C3F8047303B000
:10197000BDE8F08F0D20FAE78A44C9F1FF13CAF8D9
:101980004045D1F80405221A013A22F07F4203F5BE
:101990007F439342EED3002AE2D10134CAF8404596
:1019A000D1F804359842DAE7E037000003680222F4
:1019B000C3F8442309B1C3F80423704700684FF407
:1019C0008271FFF7F3BE4FF4803303FA01F103682D
:1019D000C3F84813C3F808137047503189000068F2
:1019E00089B2FFF7E3BE0368D3F80405704700002F
:1019F00090F90430002B09DB5A09012103F01F0381
:101A000001FA03F34032024941F82230704700BF27
:101A100000E100E0024B034A1B681068184700BF52
:101A2000F4060020EC06002010B561B1B2FBF3F41F
:101A300003FB1424A4B244B9C0E900148460828179
:101A4000C381204610BD0E20FCE70920FAE737B518
:101A500050E8013F9DB2C48925448489A54228BF2E
:101A60002D1B0489A54202BFBFF32F8F002207E080
:101A7000C5EA030540E80154002CE9D14FF001020A
:101A80008DF803200193019B9DF803200B6002F069
:101A9000FF0322B10B880068184403B030BD18461C
:101AA000FBE70A884B889A4209D150E8012FC2EA25
:101AB000024240E80123002BF7D1012070470020AB
:101AC000704737B550E8023F1FFAA3F5C488A54216
:101AD00002BFBFF32F8F00220DE0C4892544848903
:101AE000A54228BF2D1BC3EA054540E80254002C3F
:101AF000E8D14FF001028DF803200193019B9DF87E
:101B000003200B6002F0FF0322B14B8800681844E9
:101B100003B030BD1846FBE70A884B889A4209D1CA
:101B200050E8022FC2EA224240E80223002BF7D1FC
:101B3000012070470020704770B5446806460D4686
:101B4000206818B1B3682946984718B923682B60F4
:101B5000256070BD2468F3E74368186808B102681F
:101B60001A6070474368186870474368186800B97E
:101B70007047884203D102681A600120704703460B
:101B80000068F4E71FB503788DF8003043680193CF
:101B900083688DF80830C368054A0393054B68468F
:101BA00053F8213052F82110984705B05DF804FB36
:101BB000F8060020000700201FB503788DF80030DC
:101BC0004368019383688DF80830C368054A03931E
:101BD000054B684653F8213052F82110984705B05C
:101BE0005DF804FBF806002000070020F0B5194B53
:101BF00090F800C0DFF86CE043F82C20164B164636
:101C00000A6943F82C204B7F0EF80C300C4607462F
:101C10000FCC89B06D460FC594E80F0085E80F0022
:101C20001EF80C30CDF810C04BB1002E0B4A69469F
:101C300008BF3246381D00F0A7FE09B0F0BD002EE7
:101C4000074A694608BF324607F10C0000F074FCF1
:101C5000F3E700BF00070020F8060020851B000006
:101C6000B91B000008070020014B1B68184700BF84
:101C70000C07002038B50B4B98420C4601D00020D1
:101C800038BD0020FFF7D2F8074B1D7915B90122A6
:101C90001C601A710020FFF7CBF8002DEFD0112047
:101CA000EEE700BF002000400C070020034B9842E5
:101CB00001BF034B00221A601A71704700200040D8
:101CC0000C07002000F1804000F5E040002382B0C6
:101CD000036003680193019B02B0704730B50A4B63
:101CE000044693F82350082001220023144203D015
:101CF000154207D00133DBB201384FEA4202F5D179
:101D00000B7030BD0720FCE714070020054B93F84B
:101D10002200431E012B03D9043818BF012070474D
:101D200000207047140700202DE9F04F95B0914630
:101D30000DF1100C0CAF3E4A8A469846394665466E
:101D4000002302EB03140133D4F8186545F8046B43
:101D5000082BD4F81C4541F8044BF2D1354D364CD4
:101D6000D2F8F06535492B6801932368344A029311
:101D70000B6803934FF0010E00231360C2F800E0DC
:101D8000A2F6FC7202EB031E5CF804BBCEF818B599
:101D9000013357F804BBCEF81CB5082BF2D1019BD8
:101DA0002B60029B2360039B0B60264B1E9C002133
:101DB000F6B2C2F8F065C3E90111D9841C6083F85A
:101DC000240019821E9BC2F8F0A5C2F8F49563B3F3
:101DD00023231C4D164FC2F80033002207EB021CD0
:101DE00020FA02F3DCF81845110113F0010301F1A8
:101DF000804114BFC6469E4601F5E04124F0807440
:101E000002F101021ABFAE7CAB7E1E4644EA0E64AC
:101E1000082ACCF8184505F10105C1F81435C1F8B8
:101E20001065DBD115B0BDE8F08F1E9BD1E700BF78
:101E30000070004040760040447600404876004004
:101E4000FC7F004014070020F0B5154F85B0044614
:101E50000D4601260CB905B0F0BD94FAA4F2B2FA11
:101E600082F206FA02F3012D24EA030493B20BBFB7
:101E70002333DB00D80003F58E7000F1804303F5B7
:101E8000E0431B68002BE5D0FFF71CFF3B688DF893
:101E900004608DF808208DF8095001A89847D9E70B
:101EA0001407002008B5114B93F822100246D1B94F
:101EB000012083F822004FF48070FFF703FF4FF4F6
:101EC0008A70FFF7FFFE4FF48270FFF7FBFE084BAE
:101ED000C3F80013074B802018605201D2B283F878
:101EE0000723084608BD0820FCE700BF14070020B0
:101EF0000070004000E100E02DE9F0470746FFF7E1
:101F000005FF00286BD1374E082286F8230006F122
:101F10001203044603F8014B013A12F0FF02DC7190
:101F2000F8D1DFF8C48094464FF00C0E4FF0010951
:101F30005FFA8CF38B4204D308B186F8232000208B
:101F40000EE00EFB03FA07EB0A040CF1010CE57A34
:101F500022FA05F3DB0705D508B186F82320072010
:101F6000BDE8F0876378A0781B01000200F4E06010
:101F700003F03003034317F80A0000F003000343A3
:101F8000E078000300F4805003432079000400F45B
:101F9000E02003436079000500F480100343A0793A
:101FA000000600F08070034308EB0510C0F81835F8
:101FB0002B0103F1804303F5E043E07994F808A096
:101FC000C3F814A5C3F810057319607A987409FA58
:101FD00005F5A07A98762A43D2B20120A8E711200D
:101FE000BEE700BF14070020007000402DE9FF414C
:101FF00005460F4616469846FFF788FEE0B90DF1F4
:102000000F012846FFF76AFE044688B9331E18BF41
:1020100001233246CDF8008039462846FFF784FE7A
:10202000064B9DF80F2083F82520022283F82220FA
:10203000204604B0BDE8F0811124F9E71407002020
:102040001A4A30B59468134654BB00F06044B4F1AA
:10205000005F27D192F82540B1FBF4F504FB15157C
:1020600015BB0DB2002D1FDD92F82220052A05D8E0
:10207000032A0AD8022A0DD0082030BD062AFBD137
:102080000B4AC2F82C06C2F830165A6822B1D98120
:10209000986003E08C4207D1998158600020ECE7FA
:1020A0008520EAE71020E8E70920E6E7140700208A
:1020B000007000402DE9F8434C4B5C681A46002C38
:1020C00000F0918093F82210022904D004292CD02A
:1020D0000820BDE8F883464A98890121C2F8001516
:1020E000C2F82C46C2F83006186828B1032083F8DD
:1020F000220011600020ECE711603E4A1368002BBB
:10210000FCD04FF48070FFF7DDFD3B4B01221A60DD
:102110003A4A1368002BFCD04FF48270FFF7D2FDCF
:10212000334B0020C3F80005D3E7314819689D8977
:102130000126C0F8006541B1052283F82220C0F8CD
:102140002C46C0F830560660D4E7198A93F82570FB
:1021500004EB4104C0F82C46C0F8307606602548F0
:102160000368002BFCD04FF48070FFF7ABFD92F8B2
:102170002900012360B31E48DFF87C80D0F8F445C5
:10218000DFF87C90E4B203FA04F40026A64212D1F0
:102190001A480368002BFCD04FF48270FFF792FDC1
:1021A000394489B2A94216D211821120104B002263
:1021B000C3F800258DE74FF48470FFF783FD0123FA
:1021C000C8F80030D9F80030002BFBD00136DDE72D
:1021D00009480360DCE7936853600020D3891082CC
:1021E00093819060E2E7042073E700BF14070020AA
:1021F0000070004000710040047000400471004015
:102200000871004030B54F4B4F4C1B6885B0002B18
:1022100030D04FF48070FFF755FD94F82230052B35
:1022200007D0062B1ED0032B24D1484B01221A6065
:1022300020E004238DF8043001A823689847444B1C
:10224000D3F8F835DB0442BF404B01221A60A26884
:10225000062384F822302AB13D4BE189C3F82C26AD
:10226000C3F83016A3682BB903238DF8043001A8F6
:1022700023689847374B1B684BB14FF48A70FFF7C0
:1022800021FD334BD3F83436A3810023A360324BB6
:102290001B68A3B14FF48270FFF714FD63680293CB
:1022A0000025A389ADF80C308DF80450236801A8EF
:1022B000984794F82230032B21D0062B26D094F88F
:1022C00026000021FFF7C0FD94F827000121FFF749
:1022D000BBFD224B1B6883B14FF48870FFF7F2FC03
:1022E0001B4B0022C3F80025012384F8223002236F
:1022F0008DF8043001A82368984705B030BD144B11
:10230000C3F80055022384F82230D8E7A368E28995
:102310006360A281A5603BB194F82830002BCED039
:102320000B4B01221A60CAE7094AC2F800350423A0
:1023300084F8223005238DF8043001A823689847DB
:10234000BDE700BF0071004014070020047000408A
:102350000070004014710040047100401071004092
:102360000023435082B043580193019B02B0704751
:102370000A4610B54FF48E71FFF7F2FF136A9168A9
:10238000C95C136A01331362C0F81C1510BD8B6958
:102390000A4610B54FF4847123B9FFF7E1FFD0F876
:1023A000183510BDFFF7DCFF536AD168D0F8180567
:1023B000C854536A01335362F3E700001FB5012389
:1023C0008DF80030044BCDE90110D3E900126846C6
:1023D000904705B05DF804FB4007002030B54C483D
:1023E000D0F8043313F4007F85B005464DD0D0F803
:1023F0002431002B49D04FF49271FFF7B1FF4FF415
:102400000173C0F80833434B93F829200AB901221D
:1024100042603F4902228DF80020D1F88024C1F8A3
:10242000802403929A690292DA6801920022C3E939
:1024300006226846D3E9001290473548D0F81C318F
:102440005BB134494A690B6A9A420A464AD991F803
:102450002830002B46D1FFF78BFF2D48D0F84431B0
:102460008BB14FF4A271FFF77BFF2A4B93F8292021
:102470000AB1012202609A692AB10022586AD96819
:102480009A61FFF79BFF05B030BDD5F804335B07B9
:10249000D3D5D5F80831002BCFD01E4C1C4821468F
:1024A000FFF775FF636AA2699A422346C5D1E269C4
:1024B000E1684AB12369E3600023606AA261E361D5
:1024C0006362FFF77BFFB8E794F829200AB901227D
:1024D0006A600F4A4FF40170C2F808030022586A7C
:1024E0009A61EEE70A484FF48E71FFF739FF53699E
:1024F000002BB2D051690291002391688DF8003011
:10250000019153616846D2E900139847A5E700BFDF
:1025100000200040400700201F2886BF00F01F0059
:10252000044B4FF0A04300F5E070022243F8202056
:10253000704700BF000300502DE9F843614B057957
:1025400091462C2202FB0532064692F82A200C46C0
:102550009846002A40F0B1805B490068FFF78AFB8B
:102560000746002840F0AB8021684A1C10D01F2984
:1025700087BF564A01F01F030B464FF0A0420120CF
:10258000984003F5E073C2F80805032042F82300E1
:102590006068431C0DD01F288BBF00F01F0303464B
:1025A0004A4A4FF0A04203F5E0734FF0000C42F8A6
:1025B00023C03368A269C3F8242594F814C0627D4F
:1025C000BCF1010F4CEA0202C3F86C25C3F81405F4
:1025D000C3F80C152BD1A168481C0DD01F298BBF47
:1025E00001F01F020A4639484FF0A04002F5E072A0
:1025F0004FF0000C40F822C0E068421C13D01F28A6
:1026000087BF324A00F01F0C84464FF0A0424FF0C3
:10261000010E0EFA0CFE0CF5E07CC2F808E54FF056
:10262000030E42F82CE0C3F80805C3F810152C235C
:102630006B4308EB0302C2F80490226948F80320B8
:10264000B9F1000F21D03068247F4FF48E71FFF76D
:1026500087FE4FF4A2713068FFF782FE32681C4B90
:10266000C2F80433110B42F307326301002ADBB2D4
:102670001EDB1848841884F800330123520901F046
:102680001F0103FA01F140F8221033680422C3F855
:1026900000252C2303FB05830022C3E9062283F8CF
:1026A00029205A61012283F82A203846BDE8F883A0
:1026B000094A01F00F015354E7E70827F5E711270E
:1026C000F3E700BF40070020DD23000000030050B7
:1026D0008000020000E100E014ED00E02DE9F0418F
:1026E00003680479284D0022C3F800252C2202FB40
:1026F000045201465268A2B1244AC3F808231A0BB7
:1027000043F30733002B0CDB02F01F005B090122AF
:10271000824020331E4840F82320BFF34F8FBFF381
:102720006F8F0B68D3F80C05D3F81485D3F80865C0
:10273000D3F810754FF0FF329042C3F81425C3F858
:102740000C25C3F80825C3F8102501D0FFF7E4FED7
:10275000B8F1FF3F02D04046FFF7DEFE7A1C02D000
:102760003846FFF7D9FE731C02D03046FFF7D4FE7F
:102770000868FFF79BFA2C2303FB0454002384F81A
:102780002A306360BDE8F081400700208402020027
:1027900000E100E02DE9F047204F90F804904FF061
:1027A0002C0808FB097405466669002E34D1626165
:1027B0000068A16026624FF48E7184F82860FFF7EC
:1027C000CFFD2868012383602146FFF7D1FD6368B0
:1027D000A0468BB92868D4F814A0236A9A4511D86A
:1027E0002A68D2F81C31002BFBD00123D3602C23A4
:1027F00003FB097300225A613046BDE8F08794F864
:1028000028303BB9D0F81C31002BF8D04146FFF7F7
:10281000AFFDE2E70F26EAE71126EDE740070020CB
:102820000023435082B043580193019B02B070478C
:102830001FB501238DF80030044BCDE90110D3E919
:1028400000126846904705B05DF804FB6C07002055
:102850001F2886BF00F01F00044B4FF0A04300F577
:10286000E070022243F82020704700BF00030050B0
:102870007FB5434AD2F82461002E60D010464FF451
:102880009271FFF7CDFF02238DF80030D2F880342B
:10289000C2F880340393D2F83C350293394BDA689E
:1028A00001920022C3E906226846D3E9001290474C
:1028B0003348D0F8443173B14FF4A271FFF7B0FF41
:1028C000304B9A693AB10022C3E90622D968D0F8A0
:1028D0003C05FFF7ADFF2A48D0F82031ABB14FF4EB
:1028E0009071FFF79DFF0123C360264B5A6962B1C7
:1028F000D0F84C150291002299688DF800200191C2
:102900005A616846D3E9001290471D48D0F8583103
:102910009BB14FF4AC71FFF783FF1A4B5A6962B158
:10292000D0F84C150291002299688DF80020019191
:102930005A616846D3E90012904704B070BDD2F8DE
:102940001031002BB4D04FF488711046FFF768FFA8
:102950000C4BD2F83C0599698842A9D1DC69D96849
:1029600064B1D2F8005225F02005C2F800521A696D
:102970009C61DA60DE61FFF75BFF99E79C61FAE733
:10298000002000406C0700202DE9F843674B0679D2
:102990009146242202FB0632044692F820200D467E
:1029A0009846002A40F0BE8061490068FFF762F94E
:1029B0000746002840F0B8802868421C10D01F2825
:1029C00087BF5C4A00F01F0303464FF0A04201217D
:1029D000994003F5E073C2F80815032142F823106B
:1029E00069684B1C0DD01F298BBF01F01F030B46DC
:1029F000504A4FF0A04203F5E0734FF0000C42F84C
:102A000023C02368AA69C3F8242595F814C06A7DF9
:102A1000BCF1010F4CEA0202C3F86C25C3F80C05A7
:102A2000C3F814152BD1A968481C0DD01F298BBFE2
:102A300001F01F020A463F484FF0A04002F5E07245
:102A40004FF0000C40F822C0E868421C13D01F2849
:102A500087BF384A00F01F0C84464FF0A0424FF069
:102A6000010E0EFA0CFE0CF5E07CC2F808E54FF002
:102A7000030E42F82CE0C3F80805C3F81015242310
:102A8000734308EB0302C2F804902A6948F8032054
:102A9000B9F1000F30D020682A7F4FF48871FFF71A
:102AA000BFFE20684FF49071FFF7BAFE20684FF424
:102AB0009271FFF7B5FE20684FF4A271FFF7B0FEE8
:102AC0004FF4AC712068FFF7ABFE23681A49C3F8D6
:102AD0000413190B43F307335201002BD2B21CDB52
:102AE0001648C51885F8002301225B0901F01F0173
:102AF00002FA01F140F8231023680822C3F80025E8
:102B0000242303FB06830022C3E906225A61012223
:102B100083F820203846BDE8F883094B01F00F0107
:102B20005A54E9E70827F5E71127F3E76C07002077
:102B300071280000000300501003420000E100E093
:102B400014ED00E02DE9F0413D4E057904682423A1
:102B500003FB056302465B68ABB13A4BC4F808332C
:102B600044F30733002B4FEA14310CDB01F01F0054
:102B70005B09012181402033334840F82310BFF323
:102B80004F8FBFF36F8FD4F8003223F02003C4F8C7
:102B90000032242303FB05639B6933B14FF4A27118
:102BA0002046FFF73DFE012363604FF4AC712046E1
:102BB000FFF736FE0123E360242303FB0563D4F80B
:102BC00058110029FBD0996919B1D4F84411002992
:102BD000F5D00023C4F800351368D3F80C05D3F8FA
:102BE0001485D3F80815D3F810754FF0FF329042D2
:102BF000C3F80C25C3F81425C3F80825C3F810251D
:102C000001D0FFF725FEB8F1FF3F02D04046FFF7A5
:102C10001FFE7A1C02D03846FFF71AFE4B1C02D06A
:102C20000846FFF715FE2046FFF740F8242303FB74
:102C30000565002385F820306B60BDE8F08100BF9A
:102C40006C0700201003420000E100E001F0604347
:102C5000B3F1005F2DE9F041064638D11E4B0779EC
:102C6000242505FB073598466C69002C31D16A6133
:102C70000068A9604FF49071FFF7D2FD4FF4AC717A
:102C80003068FFF7CDFD33686A69A968C3F8441559
:102C9000C3F8482501229A606A68AAB9D3F82021AE
:102CA000D3F858411AB9002CF8D00F2407E0002CB3
:102CB000FBD10122DA60D3F85821002AFBD024236B
:102CC00003FB078700237B612046BDE8F0811024C9
:102CD000FAE71124F8E700BF6C07002000F18040FC
:102CE000002382B0036003680193019B02B0704728
:102CF000044A137923B90121106091801846704766
:102D00008520704790070020074B1A68D20704D42B
:102D1000C02283F8002301221A604FF08043012271
:102D2000C3F81825704700BF00E100E008B54FF474
:102D30008270FFF7D3FF4FF080430222C3F80423D1
:102D400001229A6008BD0000124B1B6810B573B1D8
:102D50004FF48070FFF7C2FF4FF080430122C3F8A9
:102D600008230D4B587910B95A711B6898470B4BC3
:102D70001B6873B14FF48270FFF7B0FF4FF08043D0
:102D80000222C3F80823044BBDE810401B68012051
:102D9000184710BD000100409007002004010040CA
:102DA0000023435082B043580193019B02B0704707
:102DB0002DE9F041224E234FDFF88C8000244FF4A0
:102DC0008035D7F80433A6F580412B4289B20CD068
:102DD000336853B1C7F848533846C7F80853FFF76C
:102DE000DFFFD8F80030E0B298470134042C4FEAF6
:102DF000450506F10406E4D11248D0F80433DA0799
:102E00000AD5D0F800313BB14FF48071FFF7C8FF0D
:102E10000D4B20461B6898470A48D0F804339B079F
:102E20000CD5D0F804314BB14FF48271FFF7B8FFE5
:102E3000054BBDE8F0411B6805201847BDE8F0814F
:102E400040410240004002409807002038B5074C3E
:102E5000051E04F1080318BF1C4623682BB11A682D
:102E600022605B6828469847F7E738BDA407002032
:102E700020B9054B01225A70FFF7E8BF012802D1A3
:102E8000014A9070F8E770479C07002038B50C4C59
:102E900023789BB90B486360A3602361E360FFF76D
:102EA00027FF0546FFF730FF01232370064BD3F8B9
:102EB00000340BB10123A370284638BD8525F5E702
:102EC0009C070020712E00000000014038B5134C13
:102ED000A378054603F0FF0073B115B16B680120BC
:102EE00098470020FDF7A2FFE3680133E36000206C
:102EF000BDE83840FDF79CBFFDF798FF25B122697A
:102F000013463BB92A602561E368002BECD1FFF73B
:102F10000DFFE9E79D42F7D01B68F2E79C07002010
:102F200010B50D4C2278B2B101210C4B002208469D
:102F3000FFF75CF808B1FDF721FF09480121FFF711
:102F40007FF808B1FDF71AFFFFF7B4F808B1FDF7F5
:102F500015FF0023237010BD38000020652F0000EE
:102F6000D0070020F8B5057806466DB90C4C0D4821
:102F70000D4F241AE408240444F0030433899D42CD
:102F800003DB0A4B01221A70F8BD73682A4633F935
:102F9000153039462046FDF791FD0135EEE700BFBB
:102FA000B4350000843500001438000038000020DB
:102FB00008B54FF400410020FDF7EEFB08B1FDF726
:102FC000DDFEFDF723FB1C4B1C481D49C01AC00841
:102FD000000440F00300FDF76DFD0620FEF762FFE0
:102FE00008B1FDF7CBFE17480121FEF785FF08B1B8
:102FF000FDF7C4FEFFF74AFF08B1FDF7BFFE002052
:10300000FFF764FFFEF7AAFA0F4A10480121FEF706
:10301000D7FA08B1FDF7B2FE0D4800224FF4005177
:10302000FEF7D9FA08B1FDF7A9FEFDF705FC002867
:10303000FBD120BFF9E700BF84350000B4350000A4
:103040001D3800002C000020212F00005038000007
:10305000B00700200369C1688B429DBF8268D21807
:1030600002F1FF3203F1FF3394BF501A581A704730
:103070002DE9F843D0E902940546A9EB040840681D
:10308000904520440F46144404D900F000FAEC6047
:10309000BDE8F8834246A4EB090400F0F8F968683B
:1030A000224607EB0801F0E72DE9F843C56806461C
:1030B000894617464FF000083469B3687068A54226
:1030C00028BFE418013C621B5C1BBC4228BF3C4685
:1030D000944228BF144649462844224600F0D7F9B6
:1030E000B3682544AB4208BF00253F1BA044A14460
:1030F000F560E1D14046BDE8F883000010B5114C01
:10310000114AA2610223C4E90433104BE361A264B3
:103110004FF400730E4A0F492362E2640023102229
:10312000E01DA3626362E362A3656365E3652265F4
:1031300000F0D6F90849204600F0D2F92023A37107
:1031400010BD00BFD4070020543800005C080020E8
:103150004C0800205D38000061380000F8B5184CBC
:10316000182300FB033503FB00402544C46A012CEF
:103170000F4616460FD0022C1AD0F4B92846FFF796
:1031800069FF864205D8324639462846FFF770FF68
:1031900034462046F8BD2846FFF75CFF8642344699
:1031A00028BF0446224639462846FFF761FFF0E76C
:1031B0002846BDE8F840FFF777BF0024E9E700BFE5
:1031C000D4070020FFF79ABF034B1868A0F108034B
:1031D00058425841704700BF30010010064B1B6831
:1031E000082B06D1054B1B68032B02D8044AD05C80
:1031F00070470020704700BF3001001034010010FC
:103200006838000008B5FFF7DFFF40B14FF080439A
:103210000022C3F80C21C3F81021C3F83825FFF7AA
:10322000D3FF002846D04FF080525E4BD2F80414F2
:10323000C3F82015D2F80814C3F82415D2F80C14DA
:10324000C3F82815D2F81014C3F82C15D2F81414AA
:10325000C3F83015D2F81814C3F83415D2F81C147A
:10326000C3F84015D2F82014C3F84415D2F824143A
:10327000C3F84815D2F82814C3F84C15D2F82C140A
:10328000C3F85015D2F83014C3F85415D2F83414DA
:10329000C3F86015D2F83814C3F86415D2F83C149A
:1032A000C3F86815D2F84014C3F86C15D2F844245A
:1032B000C3F87025FFF792FF10B13B4B3B4A1A60F1
:1032C000FFF78CFF18B13A4BFB22C3F81825FFF724
:1032D00085FF48B13749384B0A681B6822F00F0256
:1032E00003F00F0313430B60FFF778FF18B1334B64
:1032F0004FF400721A60FFF767FF48B14FF0804348
:10330000D3F80024D20744BF6FF00102C3F80024B1
:103310002B4AD2F8883043F47003C2F88830BFF3E8
:103320004F8FBFF36F8F4FF01023D3F80022002A86
:1033300003DBD3F80432002B2FDA224B0122C3F82F
:103340000425D3F80024002AFBD04FF010221221CC
:10335000C2F80012D3F80024002AFBD04FF010234B
:103360001222C3F80422174B1A46D3F8001400297E
:10337000FBD00021C3F80415D2F80034002BFBD099
:10338000BFF34F8F0E49104BCA6802F4E06213433B
:10339000CB60BFF34F8F00BFFDE70C4B0C4A1A60A8
:1033A00008BD00BF00C000408C56004048810300AB
:1033B00000F00040E40E0040580200104096024029
:1033C00000ED00E000E001400400FA053C000020B0
:1033D0000090D0037F2805D8034B185C034B5B5C3F
:1033E000184070470020704778380000F838000017
:1033F000A0F16103192B98BF20387047A0F1410359
:10340000192B98BF203070477F2805D8034B185CD4
:10341000034B5B5C18407047002070477838000011
:10342000F8380000A0F16103192B98BF20387047CD
:10343000A0F14103192B98BF203070477F299ABF14
:10344000017001206FF02E0070475AB10A787F2A70
:103450000AD800B10260002119605960501A18BFE3
:1034600001207047002070476FF02E007047000069
:1034700008B5034B5B689B681B68984708BD00BF95
:103480004000002008B50921FFF7F2FF08BD84467F
:1034900040EA010313F0030F18D18446202A0BD30E
:1034A0002DE9F007B1E8F807A0E8F807A2F120023B
:1034B000202AF7D2BDE8F007042A07D351F8043BCD
:1034C00040F8043BA2F10402042AF7D2002A05D0F6
:1034D00011F8013B00F8013B013AF9D16046704711
:1034E000024610F0030F16D111F0030F13D12DE98E
:1034F000F0004FF001374FF0803351F8044BA4EB4C
:10350000070525EA04051D4002D142F8044BF4E703
:10351000A1F10401F0BC11F8013B02F8013B002BC2
:10352000F9D1704700F1010110F0030F11D010F82C
:10353000012B002A23D010F0030F0AD010F8012B22
:10354000002A1CD010F0030F03D010F8012B002A22
:1035500015D02DE970004FF001324FF0803350F854
:10356000044BA4EB020525EA04051D4000D1F6E753
:10357000A0F1040070BC10F8012B002AFBD1A0EBD5
:04358000010070478F
:103584000438000000000000EF37000000000000D5
:103594000A38000000000000F337000000000000BB
:1035A400F937000000000000FE37000000000000B2
:1035B40082360000000003038A3700000000000088
:1035C4000E380000000000008137000000000000F9
:0835D400E637000000000000D2
:1035DC0018360000000000006136000014000020C6
:1035EC004436000000000000503600001C00002093
:1035FC00D8000020A0010020A8010020E00000203D
:04360C0018000000A2
:103610000338FDD870470000D503000041040000C6
:10362000D1030000FFFFFFFFFFFFFFFFFFFFFFFFD2
:10363000FFFFFFFF00000000000000000000D601B7
:103640000601000075050000D90500001505000001
:10365000756172745F6C6F675F6261636B656E64E6
:10366000007274745F6C6F675F6261636B656E6438
:10367000004261636B656E647320666C7573686588
:103680006400617070000000C80500207F00000029
:10369000480600201B5B306D002573001B5B313B2F
:1036A00033316D0025734C6F67732064726F7070D7
:1036B0006564202825642925730D0A003C25733E86
:1036C0002025733A20002025303278002020200069
:1036D0007C002563001B5B313B33306D001B5B318D
:1036E0003B33326D001B5B313B33336D001B5B3171
:1036F0003B33346D001B5B313B33356D001B5B315D
:103700003B33366D001B5B313B33376D00776172A5
:103710006E696E6700696E666F006465627567004A
:1037200094360000D53600009C360000DD360000DF
:10373000E5360000ED360000F5360000FD360000ED
:1037400005370000000000005E3700000D37000064
:10375000153700001A370000466174616C206572ED
:10376000726F720053797374656D2072657365743E
:1037700000303132333435363738394142434445ED
:10378000467077725F6D676D74006170705F746909
:103790006D657200000000006406002065140000E2
:1037A00052544320696E7374616E636520616C725C
:1037B0006561647920696E697469616C697A6564B0
:1037C0002E005254433A20696E697469616C697ABB
:1037D00065642E00000000000000000000000000F2
:1037E0000338FDD87047736F72746C69737400503E
:1037F00052530053414144430055415254005541F6
:1038000052544500434C4F434B0052544300636CA9
:103810006F636B00434825643A202564006E72662E
:10382000785F73616164635F617069322073696D91
:10383000706C65205341414443204C6F7720506F9A
:10384000776572204578616D706C652E0000000010
:10385000B00700205465726D696E616C005254545B
:103860000053454747455200010000004300000057
:10387000504F5349580000002020202020202020B5
:1038800020682828282820202020202020202020D0
:103890002020202020202020481010101010101070
:1038A0001010101010101010848484848484848478
:1038B0008484101010101010108181818181810189
:1038C00001010101010101010101010101010101E8
:1038D0000101011010101010108282828282820277
:1038E00002020202020202020202020202020202B8
:1038F000020202101010102000070320041702011A
:1039000008571040800000006C380000703900003B
:10391000843A000053756E004D6F6E00547565005B
:1039200057656400546875004672690053617400FD
:10393000000000004A616E00466562004D61720041
:10394000417072004D6179004A756E004A756C00D5
:1039500041756700536570004F6374004E6F7600C9
:103960004465630000000000414D00504D00000020
:10397000A83A0000A43A0000A43A0000A43A0000CB
:10398000A43A0000A43A0000A43A0000A43A0000BF
:10399000A43A0000A43A0000FFFFFFFFFFFFFFFF73
:1039A000FFFFFFFFFFFF0000E439000014390000B3
:1039B000203A00003439000068390000C83900009E
:1039C000783A0000D4390000256D2F25642F257921
:1039D0000000000025612025622025652025542057
:1039E0002559000053756E646179004D6F6E6461F6
:1039F000790054756573646179005765646E657309
:103A00006461790054687572736461790046726903
:103A1000646179005361747572646179000000001B
:103A20004A616E756172790046656272756172797C
:103A3000004D6172636800417072696C004D61797C
:103A4000004A756E65004A756C790041756775733B
:103A5000740053657074656D626572004F63746FB6
:103A6000626572004E6F76656D62657200446563D3
:103A7000656D62657200000025483A254D3A255370
:103A800000000000D5330000F1330000FD330000DA
:103A90000934000025340000313400003D340000BA
:0A3AA0004B340000000000002E006F
:103AAC00000000000020004000000000002000404A
:103ABC000000000000000000FF00000000000000FB
:103ACC00FF00000000100140110004000000000085
:103ADC000200000000080000010000000090D0036C
:103AEC0008390000083900000839000008390000C6
:043AFC000839000085
:040000030000037581
:00000001FF
